:0438000000000001C3
:0438010000000001C2
:0438020000000001C1
:043803000000000BB6
:043804000003D0905D
:0438050000000118A6
:04380600000000447A
:0438070000000000BD
:0438080000000000BC
:0438090000000000BB
:04380A0000000000BA
:04380B0000000000B9
:04380C0000000000B8
:04380D0000000000B7
:04380E0000000000B6
:04380F0000000000B5
:0438100000000000B4
:043811000002484722
:0438120000000000B2
:0438130000000000B1
:0438140000061A8010
:043815000111140881
:043816002004040185
:043817000103100495
:0438180000000101AA
:04381900001001009A
:04381A000403023071
:04381B0000000004A5
:04381C0000000000A8
:04381D000700C0815F
:04381E000090000016
:04381F0000000000A5
:0438200000000000A4
:043821000000202063
:0438220000A00404FA
:04382300010800ACEC
:0438240000000FA0F1
:043825000000015E40
:04382600000000009E
:043827000000000895
:0438280001000C048B
:043829000908030285
:04382A000000000A90
:04382B000000000693
:04382C000000000494
:04382D002728000147
:04382E000000000294
:04382F00102B2A2907
:04383000141312114A
:043831001817161539
:04383200231B1A1921
:043833000026252422
:043834000000000090
:04383500000009087E
:04383600000000008E
:04383700342414041D
:043838003525150518
:043839003B2B1B0BFF
:04383A00060302017E
:04383B000A09080767
:04383C00161312113C
:04383D001A19181725
:04383E0026232221FA
:04383F002A292827E3
:0438400036333231B8
:043841003A393837A1
:0438420000000C7006
:04384300000100166A
:043844000002025824
:04384500000300007C
:00000001FF
